{
  "contractName": "BeneficiaryRole",
  "abi": [
    {
      "constant": false,
      "inputs": [
        {
          "name": "account",
          "type": "address"
        }
      ],
      "name": "renounceGranter",
      "outputs": [],
      "payable": false,
      "stateMutability": "nonpayable",
      "type": "function"
    },
    {
      "constant": true,
      "inputs": [
        {
          "name": "account",
          "type": "address"
        }
      ],
      "name": "isGranter",
      "outputs": [
        {
          "name": "",
          "type": "bool"
        }
      ],
      "payable": false,
      "stateMutability": "view",
      "type": "function"
    },
    {
      "constant": false,
      "inputs": [
        {
          "name": "account",
          "type": "address"
        }
      ],
      "name": "addGranter",
      "outputs": [],
      "payable": false,
      "stateMutability": "nonpayable",
      "type": "function"
    },
    {
      "anonymous": false,
      "inputs": [
        {
          "indexed": true,
          "name": "account",
          "type": "address"
        }
      ],
      "name": "BeneficiaryAdded",
      "type": "event"
    },
    {
      "anonymous": false,
      "inputs": [
        {
          "indexed": true,
          "name": "account",
          "type": "address"
        }
      ],
      "name": "BeneficiaryRemoved",
      "type": "event"
    },
    {
      "anonymous": false,
      "inputs": [
        {
          "indexed": true,
          "name": "account",
          "type": "address"
        }
      ],
      "name": "GranterAdded",
      "type": "event"
    },
    {
      "anonymous": false,
      "inputs": [
        {
          "indexed": true,
          "name": "account",
          "type": "address"
        }
      ],
      "name": "GranterRemoved",
      "type": "event"
    },
    {
      "constant": true,
      "inputs": [
        {
          "name": "account",
          "type": "address"
        }
      ],
      "name": "isBeneficiary",
      "outputs": [
        {
          "name": "",
          "type": "bool"
        }
      ],
      "payable": false,
      "stateMutability": "view",
      "type": "function"
    },
    {
      "constant": false,
      "inputs": [
        {
          "name": "account",
          "type": "address"
        }
      ],
      "name": "addBeneficiary",
      "outputs": [],
      "payable": false,
      "stateMutability": "nonpayable",
      "type": "function"
    },
    {
      "constant": false,
      "inputs": [
        {
          "name": "account",
          "type": "address"
        }
      ],
      "name": "renounceBeneficiary",
      "outputs": [],
      "payable": false,
      "stateMutability": "nonpayable",
      "type": "function"
    }
  ],
  "bytecode": "0x608060405261001c33610021640100000000026401000000009004565b6101db565b610042816000610088640100000000026105a4179091906401000000009004565b8073ffffffffffffffffffffffffffffffffffffffff167fc4714d4043595982597a7dbd7c1e1ea54aa2aa05a056dc6278d08059583184d660405160405180910390a250565b600073ffffffffffffffffffffffffffffffffffffffff168173ffffffffffffffffffffffffffffffffffffffff16141515156100c457600080fd5b6100dd8282610147640100000000026401000000009004565b1515156100e957600080fd5b60018260000160008373ffffffffffffffffffffffffffffffffffffffff1673ffffffffffffffffffffffffffffffffffffffff16815260200190815260200160002060006101000a81548160ff0219169083151502179055505050565b60008073ffffffffffffffffffffffffffffffffffffffff168273ffffffffffffffffffffffffffffffffffffffff161415151561018457600080fd5b8260000160008373ffffffffffffffffffffffffffffffffffffffff1673ffffffffffffffffffffffffffffffffffffffff16815260200190815260200160002060009054906101000a900460ff16905092915050565b610680806101ea6000396000f300608060405260043610610078576000357c0100000000000000000000000000000000000000000000000000000000900463ffffffff1680633d526b1a1461007d578063489b6494146100c05780635926651d1461010357806397a70570146101465780639d19b226146101a1578063a76f8132146101fc575b600080fd5b34801561008957600080fd5b506100be600480360381019080803573ffffffffffffffffffffffffffffffffffffffff16906020019092919050505061023f565b005b3480156100cc57600080fd5b50610101600480360381019080803573ffffffffffffffffffffffffffffffffffffffff16906020019092919050505061025f565b005b34801561010f57600080fd5b50610144600480360381019080803573ffffffffffffffffffffffffffffffffffffffff16906020019092919050505061027f565b005b34801561015257600080fd5b50610187600480360381019080803573ffffffffffffffffffffffffffffffffffffffff16906020019092919050505061029f565b604051808215151515815260200191505060405180910390f35b3480156101ad57600080fd5b506101e2600480360381019080803573ffffffffffffffffffffffffffffffffffffffff1690602001909291905050506102bc565b604051808215151515815260200191505060405180910390f35b34801561020857600080fd5b5061023d600480360381019080803573ffffffffffffffffffffffffffffffffffffffff1690602001909291905050506102d9565b005b6102483361029f565b151561025357600080fd5b61025c816102f9565b50565b6102683361029f565b151561027357600080fd5b61027c81610353565b50565b6102883361029f565b151561029357600080fd5b61029c816103ad565b50565b60006102b582600061040790919063ffffffff16565b9050919050565b60006102d282600161040790919063ffffffff16565b9050919050565b6102e23361029f565b15156102ed57600080fd5b6102f68161049b565b50565b61030d8160006104f590919063ffffffff16565b8073ffffffffffffffffffffffffffffffffffffffff167fd2e59266a0d2f9671731a631932e513c00d2f26666c6e152a6f52ec29dc75fdf60405160405180910390a250565b6103678160016104f590919063ffffffff16565b8073ffffffffffffffffffffffffffffffffffffffff167f72977dad29432f655f11c2f0e72ef5124bb9ade7a512fb7a43a9f504df22342860405160405180910390a250565b6103c18160016105a490919063ffffffff16565b8073ffffffffffffffffffffffffffffffffffffffff167fc3e089fc6227e049d0e41c3d7a383d57efe69c1955c5752f7e5a9b5f1f11302060405160405180910390a250565b60008073ffffffffffffffffffffffffffffffffffffffff168273ffffffffffffffffffffffffffffffffffffffff161415151561044457600080fd5b8260000160008373ffffffffffffffffffffffffffffffffffffffff1673ffffffffffffffffffffffffffffffffffffffff16815260200190815260200160002060009054906101000a900460ff16905092915050565b6104af8160006105a490919063ffffffff16565b8073ffffffffffffffffffffffffffffffffffffffff167fc4714d4043595982597a7dbd7c1e1ea54aa2aa05a056dc6278d08059583184d660405160405180910390a250565b600073ffffffffffffffffffffffffffffffffffffffff168173ffffffffffffffffffffffffffffffffffffffff161415151561053157600080fd5b61053b8282610407565b151561054657600080fd5b60008260000160008373ffffffffffffffffffffffffffffffffffffffff1673ffffffffffffffffffffffffffffffffffffffff16815260200190815260200160002060006101000a81548160ff0219169083151502179055505050565b600073ffffffffffffffffffffffffffffffffffffffff168173ffffffffffffffffffffffffffffffffffffffff16141515156105e057600080fd5b6105ea8282610407565b1515156105f657600080fd5b60018260000160008373ffffffffffffffffffffffffffffffffffffffff1673ffffffffffffffffffffffffffffffffffffffff16815260200190815260200160002060006101000a81548160ff02191690831515021790555050505600a165627a7a723058204192a847b1a567899d58920aead4e03ba8cd649f1aa750541b62de491ccc3a690029",
  "source": "pragma solidity ^0.4.24;\n\nimport \"node_modules/openzeppelin-solidity/contracts/access/Roles.sol\";\nimport \"./GranterRole.sol\";\n\ncontract BeneficiaryRole is GranterRole{\n  using Roles for Roles.Role;\n\n  event BeneficiaryAdded(address indexed account);\n  event BeneficiaryRemoved(address indexed account);\n\n  Roles.Role private beneficiarys;\n\n  // constructor() public {\n  //   //_addBeneficiary(msg.sender);\n  // }\n\n  modifier onlyBeneficiary() {\n    require(isBeneficiary(msg.sender));\n    _;\n  }\n\n  function isBeneficiary(address account) public view returns (bool) {\n    return beneficiarys.has(account);\n  }\n\n  function addBeneficiary(address account) public onlyGranter {\n    _addBeneficiary(account);\n  }\n\n  function renounceBeneficiary(address account) public onlyGranter {\n    _removeBeneficiary(account);\n  }\n\n  function _addBeneficiary(address account) internal {\n    beneficiarys.add(account);\n    emit BeneficiaryAdded(account);\n  }\n\n  function _removeBeneficiary(address account) internal {\n    beneficiarys.remove(account);\n    emit BeneficiaryRemoved(account);\n  }\n}\n",
  "sourcePath": "/Users/apple/Documents/Career/Coding/ST Doc Standard/New copy/contracts/BeneficiaryRole.sol",
  "compiler": {
    "name": "solc",
    "version": "0.4.24+commit.e67f0147.Emscripten.clang"
  },
  "schemaVersion": "2.0.1",
  "updatedAt": "2018-11-28T15:49:50.839Z"
}