{
  "contractName": "CodeAuditorRole",
  "abi": [
    {
      "constant": false,
      "inputs": [
        {
          "name": "account",
          "type": "address"
        }
      ],
      "name": "renounceGranter",
      "outputs": [],
      "payable": false,
      "stateMutability": "nonpayable",
      "type": "function"
    },
    {
      "constant": true,
      "inputs": [
        {
          "name": "account",
          "type": "address"
        }
      ],
      "name": "isGranter",
      "outputs": [
        {
          "name": "",
          "type": "bool"
        }
      ],
      "payable": false,
      "stateMutability": "view",
      "type": "function"
    },
    {
      "constant": false,
      "inputs": [
        {
          "name": "account",
          "type": "address"
        }
      ],
      "name": "addGranter",
      "outputs": [],
      "payable": false,
      "stateMutability": "nonpayable",
      "type": "function"
    },
    {
      "anonymous": false,
      "inputs": [
        {
          "indexed": true,
          "name": "account",
          "type": "address"
        }
      ],
      "name": "CodeAuditorAdded",
      "type": "event"
    },
    {
      "anonymous": false,
      "inputs": [
        {
          "indexed": true,
          "name": "account",
          "type": "address"
        }
      ],
      "name": "CodeAuditorRemoved",
      "type": "event"
    },
    {
      "anonymous": false,
      "inputs": [
        {
          "indexed": true,
          "name": "account",
          "type": "address"
        }
      ],
      "name": "GranterAdded",
      "type": "event"
    },
    {
      "anonymous": false,
      "inputs": [
        {
          "indexed": true,
          "name": "account",
          "type": "address"
        }
      ],
      "name": "GranterRemoved",
      "type": "event"
    },
    {
      "constant": true,
      "inputs": [
        {
          "name": "account",
          "type": "address"
        }
      ],
      "name": "isCodeAuditor",
      "outputs": [
        {
          "name": "",
          "type": "bool"
        }
      ],
      "payable": false,
      "stateMutability": "view",
      "type": "function"
    },
    {
      "constant": false,
      "inputs": [
        {
          "name": "account",
          "type": "address"
        }
      ],
      "name": "addCodeAuditor",
      "outputs": [],
      "payable": false,
      "stateMutability": "nonpayable",
      "type": "function"
    },
    {
      "constant": false,
      "inputs": [
        {
          "name": "account",
          "type": "address"
        }
      ],
      "name": "renounceCodeAuditor",
      "outputs": [],
      "payable": false,
      "stateMutability": "nonpayable",
      "type": "function"
    }
  ],
  "bytecode": "0x608060405261001c33610021640100000000026401000000009004565b6101db565b610042816000610088640100000000026105a4179091906401000000009004565b8073ffffffffffffffffffffffffffffffffffffffff167fc4714d4043595982597a7dbd7c1e1ea54aa2aa05a056dc6278d08059583184d660405160405180910390a250565b600073ffffffffffffffffffffffffffffffffffffffff168173ffffffffffffffffffffffffffffffffffffffff16141515156100c457600080fd5b6100dd8282610147640100000000026401000000009004565b1515156100e957600080fd5b60018260000160008373ffffffffffffffffffffffffffffffffffffffff1673ffffffffffffffffffffffffffffffffffffffff16815260200190815260200160002060006101000a81548160ff0219169083151502179055505050565b60008073ffffffffffffffffffffffffffffffffffffffff168273ffffffffffffffffffffffffffffffffffffffff161415151561018457600080fd5b8260000160008373ffffffffffffffffffffffffffffffffffffffff1673ffffffffffffffffffffffffffffffffffffffff16815260200190815260200160002060009054906101000a900460ff16905092915050565b610680806101ea6000396000f300608060405260043610610078576000357c0100000000000000000000000000000000000000000000000000000000900463ffffffff1680633d526b1a1461007d5780638087650c146100c057806397a7057014610103578063a76f81321461015e578063c35c508b146101a1578063cc6039fb146101e4575b600080fd5b34801561008957600080fd5b506100be600480360381019080803573ffffffffffffffffffffffffffffffffffffffff16906020019092919050505061023f565b005b3480156100cc57600080fd5b50610101600480360381019080803573ffffffffffffffffffffffffffffffffffffffff16906020019092919050505061025f565b005b34801561010f57600080fd5b50610144600480360381019080803573ffffffffffffffffffffffffffffffffffffffff16906020019092919050505061027f565b604051808215151515815260200191505060405180910390f35b34801561016a57600080fd5b5061019f600480360381019080803573ffffffffffffffffffffffffffffffffffffffff16906020019092919050505061029c565b005b3480156101ad57600080fd5b506101e2600480360381019080803573ffffffffffffffffffffffffffffffffffffffff1690602001909291905050506102bc565b005b3480156101f057600080fd5b50610225600480360381019080803573ffffffffffffffffffffffffffffffffffffffff1690602001909291905050506102dc565b604051808215151515815260200191505060405180910390f35b6102483361027f565b151561025357600080fd5b61025c816102f9565b50565b6102683361027f565b151561027357600080fd5b61027c81610353565b50565b60006102958260006103ad90919063ffffffff16565b9050919050565b6102a53361027f565b15156102b057600080fd5b6102b981610441565b50565b6102c53361027f565b15156102d057600080fd5b6102d98161049b565b50565b60006102f28260016103ad90919063ffffffff16565b9050919050565b61030d8160006104f590919063ffffffff16565b8073ffffffffffffffffffffffffffffffffffffffff167fd2e59266a0d2f9671731a631932e513c00d2f26666c6e152a6f52ec29dc75fdf60405160405180910390a250565b6103678160016105a490919063ffffffff16565b8073ffffffffffffffffffffffffffffffffffffffff167f7f0b0e15445fab064dd5be181f7a54e9e470d0b2aefc350b9b2ca761ce569def60405160405180910390a250565b60008073ffffffffffffffffffffffffffffffffffffffff168273ffffffffffffffffffffffffffffffffffffffff16141515156103ea57600080fd5b8260000160008373ffffffffffffffffffffffffffffffffffffffff1673ffffffffffffffffffffffffffffffffffffffff16815260200190815260200160002060009054906101000a900460ff16905092915050565b6104558160006105a490919063ffffffff16565b8073ffffffffffffffffffffffffffffffffffffffff167fc4714d4043595982597a7dbd7c1e1ea54aa2aa05a056dc6278d08059583184d660405160405180910390a250565b6104af8160016104f590919063ffffffff16565b8073ffffffffffffffffffffffffffffffffffffffff167f8d03170a08c736c00a593fcbf5cfc9f6656b6fcbbffb0796f88a8f045735df4060405160405180910390a250565b600073ffffffffffffffffffffffffffffffffffffffff168173ffffffffffffffffffffffffffffffffffffffff161415151561053157600080fd5b61053b82826103ad565b151561054657600080fd5b60008260000160008373ffffffffffffffffffffffffffffffffffffffff1673ffffffffffffffffffffffffffffffffffffffff16815260200190815260200160002060006101000a81548160ff0219169083151502179055505050565b600073ffffffffffffffffffffffffffffffffffffffff168173ffffffffffffffffffffffffffffffffffffffff16141515156105e057600080fd5b6105ea82826103ad565b1515156105f657600080fd5b60018260000160008373ffffffffffffffffffffffffffffffffffffffff1673ffffffffffffffffffffffffffffffffffffffff16815260200190815260200160002060006101000a81548160ff02191690831515021790555050505600a165627a7a723058201035610f7227f37aed3b241034b422b744e5ffeead2c962c8d21a8ba2b29dfb50029",
  "source": "pragma solidity ^0.4.24;\n\nimport \"node_modules/openzeppelin-solidity/contracts/access/Roles.sol\";\nimport \"./GranterRole.sol\";\n\ncontract CodeAuditorRole is GranterRole {\n  using Roles for Roles.Role;\n\n  event CodeAuditorAdded(address indexed account);\n  event CodeAuditorRemoved(address indexed account);\n\n  Roles.Role private codeauditors;\n\n  // constructor() public {\n  //   //_addCodeAuditor(msg.sender);\n  // }\n\n  modifier onlyCodeAuditor() {\n    require(isCodeAuditor(msg.sender));\n    _;\n  }\n\n  function isCodeAuditor(address account) public view returns (bool) {\n    return codeauditors.has(account);\n  }\n\n  function addCodeAuditor(address account) public onlyGranter {\n    _addCodeAuditor(account);\n  }\n\n  function renounceCodeAuditor(address account) public onlyGranter {\n    _removeCodeAuditor(account);\n  }\n\n  function _addCodeAuditor(address account) internal {\n    codeauditors.add(account);\n    emit CodeAuditorAdded(account);\n  }\n\n  function _removeCodeAuditor(address account) internal {\n    codeauditors.remove(account);\n    emit CodeAuditorRemoved(account);\n  }\n}\n",
  "sourcePath": "/Users/apple/Documents/Career/Coding/ST Doc Standard/New copy/contracts/CodeAuditorRole.sol",
  "compiler": {
    "name": "solc",
    "version": "0.4.24+commit.e67f0147.Emscripten.clang"
  },
  "schemaVersion": "2.0.1",
  "updatedAt": "2018-11-28T15:49:50.840Z"
}