{
  "contractName": "Document",
  "abi": [
    {
      "constant": false,
      "inputs": [
        {
          "name": "account",
          "type": "address"
        }
      ],
      "name": "renounceGranter",
      "outputs": [],
      "payable": false,
      "stateMutability": "nonpayable",
      "type": "function"
    },
    {
      "constant": false,
      "inputs": [
        {
          "name": "account",
          "type": "address"
        }
      ],
      "name": "renounceBeneficiary",
      "outputs": [],
      "payable": false,
      "stateMutability": "nonpayable",
      "type": "function"
    },
    {
      "constant": false,
      "inputs": [
        {
          "name": "account",
          "type": "address"
        }
      ],
      "name": "renounceLawyer",
      "outputs": [],
      "payable": false,
      "stateMutability": "nonpayable",
      "type": "function"
    },
    {
      "constant": false,
      "inputs": [
        {
          "name": "account",
          "type": "address"
        }
      ],
      "name": "addBeneficiary",
      "outputs": [],
      "payable": false,
      "stateMutability": "nonpayable",
      "type": "function"
    },
    {
      "constant": true,
      "inputs": [
        {
          "name": "account",
          "type": "address"
        }
      ],
      "name": "isLawyer",
      "outputs": [
        {
          "name": "",
          "type": "bool"
        }
      ],
      "payable": false,
      "stateMutability": "view",
      "type": "function"
    },
    {
      "constant": false,
      "inputs": [
        {
          "name": "account",
          "type": "address"
        }
      ],
      "name": "addLawyer",
      "outputs": [],
      "payable": false,
      "stateMutability": "nonpayable",
      "type": "function"
    },
    {
      "constant": false,
      "inputs": [
        {
          "name": "account",
          "type": "address"
        }
      ],
      "name": "addCodeAuditor",
      "outputs": [],
      "payable": false,
      "stateMutability": "nonpayable",
      "type": "function"
    },
    {
      "constant": true,
      "inputs": [
        {
          "name": "",
          "type": "bytes32"
        }
      ],
      "name": "DocStructs",
      "outputs": [
        {
          "name": "granter",
          "type": "address"
        },
        {
          "name": "lawyer",
          "type": "address"
        },
        {
          "name": "codeAudit",
          "type": "address"
        },
        {
          "name": "beneficiary",
          "type": "address"
        },
        {
          "name": "beneficiarySigned",
          "type": "bool"
        },
        {
          "name": "lawyerSigned",
          "type": "bool"
        },
        {
          "name": "codeAuditSigned",
          "type": "bool"
        },
        {
          "name": "granterSigned",
          "type": "bool"
        },
        {
          "name": "index",
          "type": "uint256"
        }
      ],
      "payable": false,
      "stateMutability": "view",
      "type": "function"
    },
    {
      "constant": true,
      "inputs": [
        {
          "name": "account",
          "type": "address"
        }
      ],
      "name": "isGranter",
      "outputs": [
        {
          "name": "",
          "type": "bool"
        }
      ],
      "payable": false,
      "stateMutability": "view",
      "type": "function"
    },
    {
      "constant": true,
      "inputs": [
        {
          "name": "account",
          "type": "address"
        }
      ],
      "name": "isBeneficiary",
      "outputs": [
        {
          "name": "",
          "type": "bool"
        }
      ],
      "payable": false,
      "stateMutability": "view",
      "type": "function"
    },
    {
      "constant": false,
      "inputs": [
        {
          "name": "account",
          "type": "address"
        }
      ],
      "name": "addGranter",
      "outputs": [],
      "payable": false,
      "stateMutability": "nonpayable",
      "type": "function"
    },
    {
      "constant": false,
      "inputs": [
        {
          "name": "account",
          "type": "address"
        }
      ],
      "name": "renounceCodeAuditor",
      "outputs": [],
      "payable": false,
      "stateMutability": "nonpayable",
      "type": "function"
    },
    {
      "constant": true,
      "inputs": [
        {
          "name": "account",
          "type": "address"
        }
      ],
      "name": "isCodeAuditor",
      "outputs": [
        {
          "name": "",
          "type": "bool"
        }
      ],
      "payable": false,
      "stateMutability": "view",
      "type": "function"
    },
    {
      "anonymous": false,
      "inputs": [
        {
          "indexed": true,
          "name": "docHash",
          "type": "bytes32"
        }
      ],
      "name": "DocumentAdd",
      "type": "event"
    },
    {
      "anonymous": false,
      "inputs": [
        {
          "indexed": true,
          "name": "docHash",
          "type": "bytes32"
        }
      ],
      "name": "DocumentSubmit",
      "type": "event"
    },
    {
      "anonymous": false,
      "inputs": [
        {
          "indexed": true,
          "name": "sender",
          "type": "address"
        },
        {
          "indexed": true,
          "name": "docHash",
          "type": "bytes32"
        }
      ],
      "name": "LawyerRevocation",
      "type": "event"
    },
    {
      "anonymous": false,
      "inputs": [
        {
          "indexed": true,
          "name": "sender",
          "type": "address"
        },
        {
          "indexed": true,
          "name": "docHash",
          "type": "bytes32"
        }
      ],
      "name": "BeneficiaryRevocation",
      "type": "event"
    },
    {
      "anonymous": false,
      "inputs": [
        {
          "indexed": true,
          "name": "sender",
          "type": "address"
        },
        {
          "indexed": true,
          "name": "docHash",
          "type": "bytes32"
        }
      ],
      "name": "GranterRevocation",
      "type": "event"
    },
    {
      "anonymous": false,
      "inputs": [
        {
          "indexed": true,
          "name": "sender",
          "type": "address"
        },
        {
          "indexed": true,
          "name": "docHash",
          "type": "bytes32"
        }
      ],
      "name": "CodeAuditRevocation",
      "type": "event"
    },
    {
      "anonymous": false,
      "inputs": [
        {
          "indexed": true,
          "name": "sender",
          "type": "address"
        },
        {
          "indexed": true,
          "name": "docHash",
          "type": "bytes32"
        }
      ],
      "name": "LawyerConfirmation",
      "type": "event"
    },
    {
      "anonymous": false,
      "inputs": [
        {
          "indexed": true,
          "name": "sender",
          "type": "address"
        },
        {
          "indexed": true,
          "name": "docHash",
          "type": "bytes32"
        }
      ],
      "name": "BeneficiaryConfirmation",
      "type": "event"
    },
    {
      "anonymous": false,
      "inputs": [
        {
          "indexed": true,
          "name": "sender",
          "type": "address"
        },
        {
          "indexed": true,
          "name": "docHash",
          "type": "bytes32"
        }
      ],
      "name": "GranterConfirmation",
      "type": "event"
    },
    {
      "anonymous": false,
      "inputs": [
        {
          "indexed": true,
          "name": "sender",
          "type": "address"
        },
        {
          "indexed": true,
          "name": "docHash",
          "type": "bytes32"
        }
      ],
      "name": "CodeAuditConfirmation",
      "type": "event"
    },
    {
      "anonymous": false,
      "inputs": [
        {
          "indexed": true,
          "name": "account",
          "type": "address"
        }
      ],
      "name": "BeneficiaryAdded",
      "type": "event"
    },
    {
      "anonymous": false,
      "inputs": [
        {
          "indexed": true,
          "name": "account",
          "type": "address"
        }
      ],
      "name": "BeneficiaryRemoved",
      "type": "event"
    },
    {
      "anonymous": false,
      "inputs": [
        {
          "indexed": true,
          "name": "account",
          "type": "address"
        }
      ],
      "name": "CodeAuditorAdded",
      "type": "event"
    },
    {
      "anonymous": false,
      "inputs": [
        {
          "indexed": true,
          "name": "account",
          "type": "address"
        }
      ],
      "name": "CodeAuditorRemoved",
      "type": "event"
    },
    {
      "anonymous": false,
      "inputs": [
        {
          "indexed": true,
          "name": "account",
          "type": "address"
        }
      ],
      "name": "LawyerAdded",
      "type": "event"
    },
    {
      "anonymous": false,
      "inputs": [
        {
          "indexed": true,
          "name": "account",
          "type": "address"
        }
      ],
      "name": "LawyerRemoved",
      "type": "event"
    },
    {
      "anonymous": false,
      "inputs": [
        {
          "indexed": true,
          "name": "account",
          "type": "address"
        }
      ],
      "name": "GranterAdded",
      "type": "event"
    },
    {
      "anonymous": false,
      "inputs": [
        {
          "indexed": true,
          "name": "account",
          "type": "address"
        }
      ],
      "name": "GranterRemoved",
      "type": "event"
    },
    {
      "constant": false,
      "inputs": [
        {
          "name": "docHash",
          "type": "bytes32"
        },
        {
          "name": "_granter",
          "type": "address"
        },
        {
          "name": "_lawyer",
          "type": "address"
        },
        {
          "name": "_codeAudit",
          "type": "address"
        },
        {
          "name": "_beneficiary",
          "type": "address"
        }
      ],
      "name": "addDocument",
      "outputs": [
        {
          "name": "success",
          "type": "bool"
        }
      ],
      "payable": false,
      "stateMutability": "nonpayable",
      "type": "function"
    },
    {
      "constant": false,
      "inputs": [
        {
          "name": "docHash",
          "type": "bytes32"
        }
      ],
      "name": "submitDocument",
      "outputs": [
        {
          "name": "success",
          "type": "bool"
        }
      ],
      "payable": false,
      "stateMutability": "nonpayable",
      "type": "function"
    },
    {
      "constant": false,
      "inputs": [
        {
          "name": "docHash",
          "type": "bytes32"
        }
      ],
      "name": "confirmDocument",
      "outputs": [
        {
          "name": "success",
          "type": "bool"
        }
      ],
      "payable": false,
      "stateMutability": "nonpayable",
      "type": "function"
    },
    {
      "constant": false,
      "inputs": [
        {
          "name": "docHash",
          "type": "bytes32"
        }
      ],
      "name": "revokeConfirmation",
      "outputs": [
        {
          "name": "success",
          "type": "bool"
        }
      ],
      "payable": false,
      "stateMutability": "nonpayable",
      "type": "function"
    },
    {
      "constant": true,
      "inputs": [
        {
          "name": "docHash",
          "type": "bytes32"
        }
      ],
      "name": "isDoc",
      "outputs": [
        {
          "name": "isIndeed",
          "type": "bool"
        }
      ],
      "payable": false,
      "stateMutability": "view",
      "type": "function"
    },
    {
      "constant": true,
      "inputs": [],
      "name": "getAllDocument",
      "outputs": [
        {
          "name": "docHashes",
          "type": "bytes32"
        }
      ],
      "payable": false,
      "stateMutability": "view",
      "type": "function"
    },
    {
      "constant": true,
      "inputs": [],
      "name": "countAllDocument",
      "outputs": [
        {
          "name": "count",
          "type": "uint256"
        }
      ],
      "payable": false,
      "stateMutability": "view",
      "type": "function"
    },
    {
      "constant": true,
      "inputs": [
        {
          "name": "index",
          "type": "uint256"
        }
      ],
      "name": "getDocAtIndex",
      "outputs": [
        {
          "name": "docHash",
          "type": "bytes32"
        }
      ],
      "payable": false,
      "stateMutability": "view",
      "type": "function"
    }
  ],
  "bytecode": "0x60806040526200001e336200004a640100000000026401000000009004565b6200003833620000b4640100000000026401000000009004565b15156200004457600080fd5b62000239565b6200006e816000620000e16401000000000262002203179091906401000000009004565b8073ffffffffffffffffffffffffffffffffffffffff167fc4714d4043595982597a7dbd7c1e1ea54aa2aa05a056dc6278d08059583184d660405160405180910390a250565b6000620000da826000620001a46401000000000262001f58179091906401000000009004565b9050919050565b600073ffffffffffffffffffffffffffffffffffffffff168173ffffffffffffffffffffffffffffffffffffffff16141515156200011e57600080fd5b620001398282620001a4640100000000026401000000009004565b1515156200014657600080fd5b60018260000160008373ffffffffffffffffffffffffffffffffffffffff1673ffffffffffffffffffffffffffffffffffffffff16815260200190815260200160002060006101000a81548160ff0219169083151502179055505050565b60008073ffffffffffffffffffffffffffffffffffffffff168273ffffffffffffffffffffffffffffffffffffffff1614151515620001e257600080fd5b8260000160008373ffffffffffffffffffffffffffffffffffffffff1673ffffffffffffffffffffffffffffffffffffffff16815260200190815260200160002060009054906101000a900460ff16905092915050565b6122df80620002496000396000f30060806040526004361061011d576000357c0100000000000000000000000000000000000000000000000000000000900463ffffffff168063079c1bd9146101225780630b65671f146101eb5780630bee6c88146102345780633d526b1a1461027d578063489b6494146102c05780634a908733146103035780634b7fd4a31461032e5780635926651d146103715780635939a84e146103b45780635a724ef01461040f5780638087650c146104525780638c45a05d1461049557806397a70570146105d25780639d19b2261461062d5780639e5eeca214610688578063a2c196ff146106d1578063a76f81321461071a578063af045d6c1461075d578063c35c508b14610790578063cc6039fb146107d3578063f3fc536d1461082e575b600080fd5b34801561012e57600080fd5b506101d16004803603810190808035600019169060200190929190803573ffffffffffffffffffffffffffffffffffffffff169060200190929190803573ffffffffffffffffffffffffffffffffffffffff169060200190929190803573ffffffffffffffffffffffffffffffffffffffff169060200190929190803573ffffffffffffffffffffffffffffffffffffffff169060200190929190505050610877565b604051808215151515815260200191505060405180910390f35b3480156101f757600080fd5b5061021660048036038101908080359060200190929190505050610ee2565b60405180826000191660001916815260200191505060405180910390f35b34801561024057600080fd5b506102636004803603810190808035600019169060200190929190505050610f05565b604051808215151515815260200191505060405180910390f35b34801561028957600080fd5b506102be600480360381019080803573ffffffffffffffffffffffffffffffffffffffff169060200190929190505050611227565b005b3480156102cc57600080fd5b50610301600480360381019080803573ffffffffffffffffffffffffffffffffffffffff169060200190929190505050611247565b005b34801561030f57600080fd5b50610318611267565b6040518082815260200191505060405180910390f35b34801561033a57600080fd5b5061036f600480360381019080803573ffffffffffffffffffffffffffffffffffffffff169060200190929190505050611274565b005b34801561037d57600080fd5b506103b2600480360381019080803573ffffffffffffffffffffffffffffffffffffffff169060200190929190505050611294565b005b3480156103c057600080fd5b506103f5600480360381019080803573ffffffffffffffffffffffffffffffffffffffff1690602001909291905050506112b4565b604051808215151515815260200191505060405180910390f35b34801561041b57600080fd5b50610450600480360381019080803573ffffffffffffffffffffffffffffffffffffffff1690602001909291905050506112d1565b005b34801561045e57600080fd5b50610493600480360381019080803573ffffffffffffffffffffffffffffffffffffffff1690602001909291905050506112f1565b005b3480156104a157600080fd5b506104c46004803603810190808035600019169060200190929190505050611311565b604051808a73ffffffffffffffffffffffffffffffffffffffff1673ffffffffffffffffffffffffffffffffffffffff1681526020018973ffffffffffffffffffffffffffffffffffffffff1673ffffffffffffffffffffffffffffffffffffffff1681526020018873ffffffffffffffffffffffffffffffffffffffff1673ffffffffffffffffffffffffffffffffffffffff1681526020018773ffffffffffffffffffffffffffffffffffffffff1673ffffffffffffffffffffffffffffffffffffffff16815260200186151515158152602001851515151581526020018415151515815260200183151515158152602001828152602001995050505050505050505060405180910390f35b3480156105de57600080fd5b50610613600480360381019080803573ffffffffffffffffffffffffffffffffffffffff169060200190929190505050611413565b604051808215151515815260200191505060405180910390f35b34801561063957600080fd5b5061066e600480360381019080803573ffffffffffffffffffffffffffffffffffffffff169060200190929190505050611430565b604051808215151515815260200191505060405180910390f35b34801561069457600080fd5b506106b7600480360381019080803560001916906020019092919050505061144d565b604051808215151515815260200191505060405180910390f35b3480156106dd57600080fd5b5061070060048036038101908080356000191690602001909291905050506114af565b604051808215151515815260200191505060405180910390f35b34801561072657600080fd5b5061075b600480360381019080803573ffffffffffffffffffffffffffffffffffffffff16906020019092919050505061181d565b005b34801561076957600080fd5b5061077261183d565b60405180826000191660001916815260200191505060405180910390f35b34801561079c57600080fd5b506107d1600480360381019080803573ffffffffffffffffffffffffffffffffffffffff169060200190929190505050611877565b005b3480156107df57600080fd5b50610814600480360381019080803573ffffffffffffffffffffffffffffffffffffffff169060200190929190505050611897565b604051808215151515815260200191505060405180910390f35b34801561083a57600080fd5b5061085d60048036038101908080356000191690602001909291905050506118b4565b604051808215151515815260200191505060405180910390f35b60008484848461088684611413565b1515610920576040517f08c379a000000000000000000000000000000000000000000000000000000000815260040180806020018281038252602c8152602001807f4772616e7465722061646472657373206973206e6f74207265636f676e697a6581526020017f64206173206772616e746572000000000000000000000000000000000000000081525060400191505060405180910390fd5b61092982611897565b15156109c3576040517f08c379a00000000000000000000000000000000000000000000000000000000081526004018080602001828103825260368152602001807f436f64652041756469746f722061646472657373206973206e6f74207265636f81526020017f676e697a656420617320636f64652061756469746f720000000000000000000081525060400191505060405180910390fd5b6109cc836112b4565b1515610a66576040517f08c379a000000000000000000000000000000000000000000000000000000000815260040180806020018281038252602a8152602001807f4c61777965722061646472657373206973206e6f74207265636f676e697a656481526020017f206173206c61777965720000000000000000000000000000000000000000000081525060400191505060405180910390fd5b610a6f81611430565b1515610b09576040517f08c379a00000000000000000000000000000000000000000000000000000000081526004018080602001828103825260348152602001807f42656e65666963696172792061646472657373206973206e6f74207265636f6781526020017f6e697a65642061732062656e656669636961727900000000000000000000000081525060400191505060405180910390fd5b610b1233611413565b1515610b1d57600080fd5b610b268a61144d565b151515610b9b576040517f08c379a00000000000000000000000000000000000000000000000000000000081526004018080602001828103825260168152602001807f446f63756d656e7420616c72656164792065786973740000000000000000000081525060200191505060405180910390fd5b610ba78689898c611c96565b1515610bb257600080fd5b610120604051908101604052808a73ffffffffffffffffffffffffffffffffffffffff1681526020018973ffffffffffffffffffffffffffffffffffffffff1681526020018873ffffffffffffffffffffffffffffffffffffffff1681526020018773ffffffffffffffffffffffffffffffffffffffff168152602001600015158152602001600015158152602001600015158152602001600015158152602001600480549050815250600560008c6000191660001916815260200190815260200160002060008201518160000160006101000a81548173ffffffffffffffffffffffffffffffffffffffff021916908373ffffffffffffffffffffffffffffffffffffffff16021790555060208201518160010160006101000a81548173ffffffffffffffffffffffffffffffffffffffff021916908373ffffffffffffffffffffffffffffffffffffffff16021790555060408201518160020160006101000a81548173ffffffffffffffffffffffffffffffffffffffff021916908373ffffffffffffffffffffffffffffffffffffffff16021790555060608201518160030160006101000a81548173ffffffffffffffffffffffffffffffffffffffff021916908373ffffffffffffffffffffffffffffffffffffffff16021790555060808201518160030160146101000a81548160ff02191690831515021790555060a08201518160030160156101000a81548160ff02191690831515021790555060c08201518160030160166101000a81548160ff02191690831515021790555060e08201518160030160176101000a81548160ff02191690831515021790555061010082015181600401559050506001600560008c6000191660001916815260200190815260200160002060030160176101000a81548160ff02191690831515021790555089600019163373ffffffffffffffffffffffffffffffffffffffff167fe8a00d8f44c2bd33323fa61d4825c3a66885f412774ec4ff526622760cd0944360405160405180910390a389600019167faa81e15d0083b492f12d2425d225fbc0c31900f009dd421f3e58f173efbc060b60405160405180910390a2600194505050505095945050505050565b6000600482815481101515610ef357fe5b90600052602060002001549050919050565b600060056000836000191660001916815260200190815260200160002060030160179054906101000a900460ff161515610f3e57600080fd5b3373ffffffffffffffffffffffffffffffffffffffff1660056000846000191660001916815260200190815260200160002060010160009054906101000a900473ffffffffffffffffffffffffffffffffffffffff1673ffffffffffffffffffffffffffffffffffffffff16141561103457600160056000846000191660001916815260200190815260200160002060030160156101000a81548160ff02191690831515021790555081600019163373ffffffffffffffffffffffffffffffffffffffff167fc322dc6f2e10f9db15cf35e4b014ce7f5a42200203b8e68ee8017e9ab9a2478360405160405180910390a361121e565b3373ffffffffffffffffffffffffffffffffffffffff1660056000846000191660001916815260200190815260200160002060020160009054906101000a900473ffffffffffffffffffffffffffffffffffffffff1673ffffffffffffffffffffffffffffffffffffffff16141561112a57600160056000846000191660001916815260200190815260200160002060030160166101000a81548160ff02191690831515021790555081600019163373ffffffffffffffffffffffffffffffffffffffff167f54b8f520968e1b2c07d8f177ef3974278aee84792136752b3c71afc91abd086e60405160405180910390a361121d565b3373ffffffffffffffffffffffffffffffffffffffff1660056000846000191660001916815260200190815260200160002060030160009054906101000a900473ffffffffffffffffffffffffffffffffffffffff1673ffffffffffffffffffffffffffffffffffffffff16141561121c57600160056000846000191660001916815260200190815260200160002060030160146101000a81548160ff02191690831515021790555081600019163373ffffffffffffffffffffffffffffffffffffffff167fbb9d23be15acff458ba3b27cdf4b4f768b9e8c33257707317169aedffd8d296a60405160405180910390a35b5b5b60019050919050565b61123033611413565b151561123b57600080fd5b61124481611df0565b50565b61125033611413565b151561125b57600080fd5b61126481611e4a565b50565b6000600480549050905090565b61127d33611413565b151561128857600080fd5b61129181611ea4565b50565b61129d33611413565b15156112a857600080fd5b6112b181611efe565b50565b60006112ca826001611f5890919063ffffffff16565b9050919050565b6112da33611413565b15156112e557600080fd5b6112ee81611fec565b50565b6112fa33611413565b151561130557600080fd5b61130e81612046565b50565b60056020528060005260406000206000915090508060000160009054906101000a900473ffffffffffffffffffffffffffffffffffffffff16908060010160009054906101000a900473ffffffffffffffffffffffffffffffffffffffff16908060020160009054906101000a900473ffffffffffffffffffffffffffffffffffffffff16908060030160009054906101000a900473ffffffffffffffffffffffffffffffffffffffff16908060030160149054906101000a900460ff16908060030160159054906101000a900460ff16908060030160169054906101000a900460ff16908060030160179054906101000a900460ff16908060040154905089565b6000611429826000611f5890919063ffffffff16565b9050919050565b6000611446826003611f5890919063ffffffff16565b9050919050565b600080600480549050141561146557600090506114aa565b816000191660046005600085600019166000191681526020019081526020016000206004015481548110151561149757fe5b9060005260206000200154600019161490505b919050565b60008160056000826000191660001916815260200190815260200160002060030160159054906101000a900460ff161515611552576040517f08c379a00000000000000000000000000000000000000000000000000000000081526004018080602001828103825260198152602001807f4c617779657220686173206e6f74207369676e6564207965740000000000000081525060200191505060405180910390fd5b60056000826000191660001916815260200190815260200160002060030160169054906101000a900460ff1615156115f2576040517f08c379a000000000000000000000000000000000000000000000000000000000815260040180806020018281038252601f8152602001807f436f64652041756469746f7220686173206e6f74207369676e6564207965740081525060200191505060405180910390fd5b60056000826000191660001916815260200190815260200160002060030160179054906101000a900460ff161515611692576040517f08c379a000000000000000000000000000000000000000000000000000000000815260040180806020018281038252601a8152602001807f4772616e74657220686173206e6f74207369676e65642079657400000000000081525060200191505060405180910390fd5b60056000826000191660001916815260200190815260200160002060030160149054906101000a900460ff161515611732576040517f08c379a000000000000000000000000000000000000000000000000000000000815260040180806020018281038252601e8152602001807f42656e656669636961727920686173206e6f74207369676e656420796574000081525060200191505060405180910390fd5b61173b8361144d565b1515156117b0576040517f08c379a00000000000000000000000000000000000000000000000000000000081526004018080602001828103825260168152602001807f446f63756d656e7420616c72656164792065786973740000000000000000000081525060200191505060405180910390fd5b600483908060018154018082558091505090600182039060005260206000200160009091929091909150906000191690555082600019167f9644d70507fc13bde8ff5e0462363f378d1fff8173217f0715e14ad1cfcebe9060405160405180910390a26001915050919050565b61182633611413565b151561183157600080fd5b61183a816120a0565b50565b600080600090506004805490508110156118725760048181548110151561186057fe5b90600052602060002001549150611873565b5b5090565b61188033611413565b151561188b57600080fd5b611894816120fa565b50565b60006118ad826002611f5890919063ffffffff16565b9050919050565b60003373ffffffffffffffffffffffffffffffffffffffff1660056000846000191660001916815260200190815260200160002060010160009054906101000a900473ffffffffffffffffffffffffffffffffffffffff1673ffffffffffffffffffffffffffffffffffffffff1614156119ac57600060056000846000191660001916815260200190815260200160002060030160156101000a81548160ff02191690831515021790555081600019163373ffffffffffffffffffffffffffffffffffffffff167fbe2a43c85d35f00fe615f34481b7923fcb928112c8220263868678a52cb4d84060405160405180910390a3611c8d565b3373ffffffffffffffffffffffffffffffffffffffff1660056000846000191660001916815260200190815260200160002060020160009054906101000a900473ffffffffffffffffffffffffffffffffffffffff1673ffffffffffffffffffffffffffffffffffffffff161415611aa257600060056000846000191660001916815260200190815260200160002060030160166101000a81548160ff02191690831515021790555081600019163373ffffffffffffffffffffffffffffffffffffffff167f2335bd7268ee3cca7707deac0877ae28ab4fda3b234985d6af46821b0374a77d60405160405180910390a3611c8c565b3373ffffffffffffffffffffffffffffffffffffffff1660056000846000191660001916815260200190815260200160002060030160009054906101000a900473ffffffffffffffffffffffffffffffffffffffff1673ffffffffffffffffffffffffffffffffffffffff161415611b9857600060056000846000191660001916815260200190815260200160002060030160146101000a81548160ff02191690831515021790555081600019163373ffffffffffffffffffffffffffffffffffffffff167f4fd2b8356b1473c1a25c2bb19c9099b3b4c2abd8f6f84f4d0785a21d2524068260405160405180910390a3611c8b565b3373ffffffffffffffffffffffffffffffffffffffff1660056000846000191660001916815260200190815260200160002060000160009054906101000a900473ffffffffffffffffffffffffffffffffffffffff1673ffffffffffffffffffffffffffffffffffffffff161415611c8a57600060056000846000191660001916815260200190815260200160002060030160176101000a81548160ff02191690831515021790555081600019163373ffffffffffffffffffffffffffffffffffffffff167f8d878ddd932ff7b076af884a6a20b330e4e87e66fa129f97d821ea0abb22401860405160405180910390a35b5b5b5b60019050919050565b60008373ffffffffffffffffffffffffffffffffffffffff168573ffffffffffffffffffffffffffffffffffffffff161480611cfd57508273ffffffffffffffffffffffffffffffffffffffff168573ffffffffffffffffffffffffffffffffffffffff16145b80611d3357508173ffffffffffffffffffffffffffffffffffffffff168573ffffffffffffffffffffffffffffffffffffffff16145b80611d6957508273ffffffffffffffffffffffffffffffffffffffff168473ffffffffffffffffffffffffffffffffffffffff16145b80611d9f57508173ffffffffffffffffffffffffffffffffffffffff168473ffffffffffffffffffffffffffffffffffffffff16145b80611dd557508173ffffffffffffffffffffffffffffffffffffffff168373ffffffffffffffffffffffffffffffffffffffff16145b15611de35760009050611de8565b600190505b949350505050565b611e0481600061215490919063ffffffff16565b8073ffffffffffffffffffffffffffffffffffffffff167fd2e59266a0d2f9671731a631932e513c00d2f26666c6e152a6f52ec29dc75fdf60405160405180910390a250565b611e5e81600361215490919063ffffffff16565b8073ffffffffffffffffffffffffffffffffffffffff167f72977dad29432f655f11c2f0e72ef5124bb9ade7a512fb7a43a9f504df22342860405160405180910390a250565b611eb881600161215490919063ffffffff16565b8073ffffffffffffffffffffffffffffffffffffffff167feb840aeb3331fcd74e8e9d6f8c8217b980229499416e3ee086b384d1e60d128960405160405180910390a250565b611f1281600361220390919063ffffffff16565b8073ffffffffffffffffffffffffffffffffffffffff167fc3e089fc6227e049d0e41c3d7a383d57efe69c1955c5752f7e5a9b5f1f11302060405160405180910390a250565b60008073ffffffffffffffffffffffffffffffffffffffff168273ffffffffffffffffffffffffffffffffffffffff1614151515611f9557600080fd5b8260000160008373ffffffffffffffffffffffffffffffffffffffff1673ffffffffffffffffffffffffffffffffffffffff16815260200190815260200160002060009054906101000a900460ff16905092915050565b61200081600161220390919063ffffffff16565b8073ffffffffffffffffffffffffffffffffffffffff167f45f5349bd0c0b749fd852315cbeb4153c508befe4505d4427b599fb758d44b0460405160405180910390a250565b61205a81600261220390919063ffffffff16565b8073ffffffffffffffffffffffffffffffffffffffff167f7f0b0e15445fab064dd5be181f7a54e9e470d0b2aefc350b9b2ca761ce569def60405160405180910390a250565b6120b481600061220390919063ffffffff16565b8073ffffffffffffffffffffffffffffffffffffffff167fc4714d4043595982597a7dbd7c1e1ea54aa2aa05a056dc6278d08059583184d660405160405180910390a250565b61210e81600261215490919063ffffffff16565b8073ffffffffffffffffffffffffffffffffffffffff167f8d03170a08c736c00a593fcbf5cfc9f6656b6fcbbffb0796f88a8f045735df4060405160405180910390a250565b600073ffffffffffffffffffffffffffffffffffffffff168173ffffffffffffffffffffffffffffffffffffffff161415151561219057600080fd5b61219a8282611f58565b15156121a557600080fd5b60008260000160008373ffffffffffffffffffffffffffffffffffffffff1673ffffffffffffffffffffffffffffffffffffffff16815260200190815260200160002060006101000a81548160ff0219169083151502179055505050565b600073ffffffffffffffffffffffffffffffffffffffff168173ffffffffffffffffffffffffffffffffffffffff161415151561223f57600080fd5b6122498282611f58565b15151561225557600080fd5b60018260000160008373ffffffffffffffffffffffffffffffffffffffff1673ffffffffffffffffffffffffffffffffffffffff16815260200190815260200160002060006101000a81548160ff02191690831515021790555050505600a165627a7a72305820da9efff77ae3f8042496b2c689e5c3a9946efcd4251c85aa91802ebdf0dda35a0029",
  "source": "pragma solidity ^0.4.24;\n\nimport \"./LawyerRole.sol\";\nimport \"./GranterRole.sol\";\nimport \"./CodeAuditorRole.sol\";\nimport \"./BeneficiaryRole.sol\";\n//import \"node_modules/_openzeppelin-solidity@2.0.0@openzeppelin-solidity/contracts/token/ERC721/ERC721Metadata.sol\";\n//import \"node_modules/openzeppelin-solidity/contracts/ownership/Ownable.sol\";\n\n\ncontract Document is GranterRole, LawyerRole, CodeAuditorRole, BeneficiaryRole {\n\n\n\tstruct DocStruct {\n\t\taddress granter;\n\t\taddress lawyer;\n\t\taddress codeAudit;\n\t\taddress beneficiary;\n\t\tbool beneficiarySigned;\n\t\tbool lawyerSigned;\n\t\tbool codeAuditSigned;\n\t\tbool granterSigned;\n\t\tuint index;\n\t}\n\n\tbytes32[] docIndex; //list of doc keys (docHash)\n\n\n\t//use docHash as key to map to DocStruct\n\tmapping (bytes32 => DocStruct) public DocStructs;\n\n\tevent DocumentAdd(bytes32 indexed docHash);\n\tevent DocumentSubmit(bytes32 indexed docHash);\n\tevent LawyerRevocation(address indexed sender, bytes32 indexed docHash);\n\tevent BeneficiaryRevocation(address indexed sender, bytes32 indexed docHash);\n\tevent GranterRevocation(address indexed sender, bytes32 indexed docHash);\n\tevent CodeAuditRevocation(address indexed sender, bytes32 indexed docHash);\n\tevent LawyerConfirmation(address indexed sender, bytes32 indexed docHash);\n\tevent BeneficiaryConfirmation(address indexed sender, bytes32 indexed docHash);\n\tevent GranterConfirmation(address indexed sender, bytes32 indexed docHash);\n\tevent CodeAuditConfirmation(address indexed sender, bytes32 indexed docHash);\n\n\t/**\n   * @dev Throws if called by any account other than the owner.\n   */\n\tmodifier allSigned(bytes32 docHash) {\n\t\trequire(DocStructs[docHash].lawyerSigned,\"Lawyer has not signed yet\");\n\t\trequire(DocStructs[docHash].codeAuditSigned,\"Code Auditor has not signed yet\");\n\t\trequire(DocStructs[docHash].granterSigned,\"Granter has not signed yet\");\n\t\trequire(DocStructs[docHash].beneficiarySigned,\"Beneficiary has not signed yet\");\n\t\t_;\n\t}\n\n\tmodifier preAuthorized(address granter, address lawyer, address codeAudit, address beneficiary) {\n\t\trequire(isGranter(granter),\"Granter address is not recognized as granter\");\n\t\trequire(isCodeAuditor(codeAudit),\"Code Auditor address is not recognized as code auditor\");\n\t\trequire(isLawyer(lawyer),\"Lawyer address is not recognized as lawyer\");\n\t\trequire(isBeneficiary(beneficiary),\"Beneficiary address is not recognized as beneficiary\");\n\t\t_;\n\t}\n\n\t//ownerconfirm it, ipfs hashrequired parties\n\t//@param docHash is the digest. JS need a function to separate out digest from the ipfs hash\n\tfunction addDocument(bytes32 docHash, address _granter, address _lawyer, address _codeAudit, address _beneficiary) public preAuthorized(_granter,_lawyer,_codeAudit,_beneficiary) onlyGranter returns (bool success) {\n\t\t//need to check if document doesnt exist yet\n\t\trequire(!isDoc(docHash),\"Document already exist\");\n\t\t//require none of the four address are the same\n\t\trequire(compAddress(_beneficiary, _lawyer,_codeAudit,_granter));\n\t\t//input address must be pre-authorized\n\t\t//require(isGranter(_granter),\"Granter address is not recognized as granter\");\n\t\t\n\n\n\t\t//create a new docStruct\n\t\tDocStructs[docHash] = DocStruct(_granter,_lawyer,_codeAudit,_beneficiary,false,false,false,false,docIndex.length);\n\n\t\tDocStructs[docHash].granterSigned = true;\n\t\temit GranterConfirmation(msg.sender, docHash);\n\t\temit DocumentAdd(docHash);\n\t\treturn true;\n\t}\n\n\t//owner(Granter) add a new document hash, needs confirmation from all requiredparties\n\tfunction submitDocument(bytes32 docHash) allSigned(docHash) public returns (bool success) {\n\t\t\n\t\t//need to check if document doesnt exist yet\n\t\trequire(!isDoc(docHash),\"Document already exist\");\n\n\t\tdocIndex.push(docHash);\n\t\temit DocumentSubmit(docHash);\n\t\treturn true;\n\t}\n\n\t//relevant party review and confirm\n\tfunction confirmDocument(bytes32 docHash) public returns (bool success) {\n\t\trequire(DocStructs[docHash].granterSigned);\n\n\t\tif (DocStructs[docHash].lawyer == msg.sender){\n\t\t\tDocStructs[docHash].lawyerSigned = true;\n\t\t\temit LawyerConfirmation(msg.sender, docHash);\n\t\t} else if (DocStructs[docHash].codeAudit == msg.sender){\n\t\t\tDocStructs[docHash].codeAuditSigned = true;\n\t\t\temit CodeAuditConfirmation(msg.sender, docHash);\n\t\t} else if (DocStructs[docHash].beneficiary == msg.sender){\n\t\t\tDocStructs[docHash].beneficiarySigned = true;\n\t\t\temit BeneficiaryConfirmation(msg.sender, docHash);\n\t\t} \n\n\t\treturn true;\n\n\t}\n\n\tfunction revokeConfirmation(bytes32 docHash) public returns (bool success) {\n\n\t\tif (DocStructs[docHash].lawyer == msg.sender){\n\t\t\tDocStructs[docHash].lawyerSigned = false;\n\t\t\temit LawyerRevocation(msg.sender, docHash);\n\t\t} else if (DocStructs[docHash].codeAudit == msg.sender){\n\t\t\tDocStructs[docHash].codeAuditSigned = false;\n\t\t\temit CodeAuditRevocation(msg.sender, docHash);\n\t\t} else if (DocStructs[docHash].beneficiary == msg.sender){\n\t\t\tDocStructs[docHash].beneficiarySigned = false;\n\t\t\temit BeneficiaryRevocation(msg.sender, docHash);\n\t\t} else if (DocStructs[docHash].granter == msg.sender){\n\t\t\tDocStructs[docHash].granterSigned = false;\n\t\t\temit GranterRevocation(msg.sender, docHash);\n\t\t}\n\t\t\n\t\treturn true;\n\t}\n\n\tfunction isDoc(bytes32 docHash) public constant returns (bool isIndeed) {\n\t\t//if docIndex array is empty, this document doesnt exist\n\t\tif (docIndex.length == 0) return false;\n\t\t//get the index of the signer to look up its address\n\t\treturn(docIndex[DocStructs[docHash].index] == docHash);\n\t}\n\n\t//returns all document hashes\n\tfunction getAllDocument() public view returns (bytes32 docHashes) {\n\t\tfor(uint i = 0; i < docIndex.length; i++) {\n\t\t\treturn docIndex[i];\n\t\t}\n\t}\n\n\tfunction countAllDocument() public view returns (uint count) {\n\t\treturn docIndex.length;\n\t}\n\n\tfunction getDocAtIndex(uint index) public constant returns(bytes32 docHash) {\n\t  return docIndex[index];\n\t}\n\n\t//make sure none of the 4 address are the same\n\tfunction compAddress(address _a, address _b, address _c, address _d) internal pure returns (bool success) {\n\t\tif((_a == _b)||(_a == _c)||(_a==_d)||(_b==_c)||(_b==_d)||(_c==_d)) {\n\t\t\t//there is match\n\t\t\treturn false;\n\t\t}\n\t\t//none are the same\n\t\treturn true;\n\t}\n\n\t//returns the signers for a specified doc\n}\n",
  "sourcePath": "/Users/apple/Documents/Career/Coding/ST Doc Standard/New copy/contracts/Document.sol",
  "compiler": {
    "name": "solc",
    "version": "0.4.24+commit.e67f0147.Emscripten.clang"
  },
  "schemaVersion": "2.0.1",
  "updatedAt": "2018-11-28T15:49:50.892Z"
}