{
  "contractName": "GranterRole",
  "abi": [
    {
      "inputs": [],
      "payable": false,
      "stateMutability": "nonpayable",
      "type": "constructor"
    },
    {
      "anonymous": false,
      "inputs": [
        {
          "indexed": true,
          "name": "account",
          "type": "address"
        }
      ],
      "name": "GranterAdded",
      "type": "event"
    },
    {
      "anonymous": false,
      "inputs": [
        {
          "indexed": true,
          "name": "account",
          "type": "address"
        }
      ],
      "name": "GranterRemoved",
      "type": "event"
    },
    {
      "constant": true,
      "inputs": [
        {
          "name": "account",
          "type": "address"
        }
      ],
      "name": "isGranter",
      "outputs": [
        {
          "name": "",
          "type": "bool"
        }
      ],
      "payable": false,
      "stateMutability": "view",
      "type": "function"
    },
    {
      "constant": false,
      "inputs": [
        {
          "name": "account",
          "type": "address"
        }
      ],
      "name": "addGranter",
      "outputs": [],
      "payable": false,
      "stateMutability": "nonpayable",
      "type": "function"
    },
    {
      "constant": false,
      "inputs": [
        {
          "name": "account",
          "type": "address"
        }
      ],
      "name": "renounceGranter",
      "outputs": [],
      "payable": false,
      "stateMutability": "nonpayable",
      "type": "function"
    }
  ],
  "bytecode": "0x608060405234801561001057600080fd5b506100293361002e640100000000026401000000009004565b6101e8565b61004f81600061009564010000000002610391179091906401000000009004565b8073ffffffffffffffffffffffffffffffffffffffff167fc4714d4043595982597a7dbd7c1e1ea54aa2aa05a056dc6278d08059583184d660405160405180910390a250565b600073ffffffffffffffffffffffffffffffffffffffff168173ffffffffffffffffffffffffffffffffffffffff16141515156100d157600080fd5b6100ea8282610154640100000000026401000000009004565b1515156100f657600080fd5b60018260000160008373ffffffffffffffffffffffffffffffffffffffff1673ffffffffffffffffffffffffffffffffffffffff16815260200190815260200160002060006101000a81548160ff0219169083151502179055505050565b60008073ffffffffffffffffffffffffffffffffffffffff168273ffffffffffffffffffffffffffffffffffffffff161415151561019157600080fd5b8260000160008373ffffffffffffffffffffffffffffffffffffffff1673ffffffffffffffffffffffffffffffffffffffff16815260200190815260200160002060009054906101000a900460ff16905092915050565b61046d806101f76000396000f300608060405260043610610057576000357c0100000000000000000000000000000000000000000000000000000000900463ffffffff1680633d526b1a1461005c57806397a705701461009f578063a76f8132146100fa575b600080fd5b34801561006857600080fd5b5061009d600480360381019080803573ffffffffffffffffffffffffffffffffffffffff16906020019092919050505061013d565b005b3480156100ab57600080fd5b506100e0600480360381019080803573ffffffffffffffffffffffffffffffffffffffff16906020019092919050505061015d565b604051808215151515815260200191505060405180910390f35b34801561010657600080fd5b5061013b600480360381019080803573ffffffffffffffffffffffffffffffffffffffff16906020019092919050505061017a565b005b6101463361015d565b151561015157600080fd5b61015a8161019a565b50565b60006101738260006101f490919063ffffffff16565b9050919050565b6101833361015d565b151561018e57600080fd5b61019781610288565b50565b6101ae8160006102e290919063ffffffff16565b8073ffffffffffffffffffffffffffffffffffffffff167fd2e59266a0d2f9671731a631932e513c00d2f26666c6e152a6f52ec29dc75fdf60405160405180910390a250565b60008073ffffffffffffffffffffffffffffffffffffffff168273ffffffffffffffffffffffffffffffffffffffff161415151561023157600080fd5b8260000160008373ffffffffffffffffffffffffffffffffffffffff1673ffffffffffffffffffffffffffffffffffffffff16815260200190815260200160002060009054906101000a900460ff16905092915050565b61029c81600061039190919063ffffffff16565b8073ffffffffffffffffffffffffffffffffffffffff167fc4714d4043595982597a7dbd7c1e1ea54aa2aa05a056dc6278d08059583184d660405160405180910390a250565b600073ffffffffffffffffffffffffffffffffffffffff168173ffffffffffffffffffffffffffffffffffffffff161415151561031e57600080fd5b61032882826101f4565b151561033357600080fd5b60008260000160008373ffffffffffffffffffffffffffffffffffffffff1673ffffffffffffffffffffffffffffffffffffffff16815260200190815260200160002060006101000a81548160ff0219169083151502179055505050565b600073ffffffffffffffffffffffffffffffffffffffff168173ffffffffffffffffffffffffffffffffffffffff16141515156103cd57600080fd5b6103d782826101f4565b1515156103e357600080fd5b60018260000160008373ffffffffffffffffffffffffffffffffffffffff1673ffffffffffffffffffffffffffffffffffffffff16815260200190815260200160002060006101000a81548160ff02191690831515021790555050505600a165627a7a723058207d92624a1ff619063f490480c3533893a082811126e1a9f722791d416c64186d0029",
  "source": "pragma solidity ^0.4.24;\n\nimport \"node_modules/openzeppelin-solidity/contracts/access/Roles.sol\";\n\ncontract GranterRole {\n  using Roles for Roles.Role;\n\n  event GranterAdded(address indexed account);\n  event GranterRemoved(address indexed account);\n\n  Roles.Role private granters;\n\n  constructor() public {\n    _addGranter(msg.sender);\n  }\n\n  modifier onlyGranter() {\n    require(isGranter(msg.sender));\n    _;\n  }\n\n  function isGranter(address account) public view returns (bool) {\n    return granters.has(account);\n  }\n\n  function addGranter(address account) public onlyGranter {\n    _addGranter(account);\n  }\n\n  function renounceGranter(address account) public onlyGranter {\n    _removeGranter(account);\n  }\n\n  function _addGranter(address account) internal {\n    granters.add(account);\n    emit GranterAdded(account);\n  }\n\n  function _removeGranter(address account) internal {\n    granters.remove(account);\n    emit GranterRemoved(account);\n  }\n}\n",
  "sourcePath": "/Users/apple/Documents/Career/Coding/ST Doc Standard/New copy/contracts/GranterRole.sol",
  "compiler": {
    "name": "solc",
    "version": "0.4.24+commit.e67f0147.Emscripten.clang"
  },
  "schemaVersion": "2.0.1",
  "updatedAt": "2018-11-28T15:49:50.842Z"
}