{
  "contractName": "IPFSStorage",
  "abi": [
    {
      "anonymous": false,
      "inputs": [
        {
          "indexed": true,
          "name": "key",
          "type": "address"
        },
        {
          "indexed": false,
          "name": "digest",
          "type": "bytes32"
        },
        {
          "indexed": false,
          "name": "hashFunction",
          "type": "uint8"
        },
        {
          "indexed": false,
          "name": "size",
          "type": "uint8"
        }
      ],
      "name": "EntrySet",
      "type": "event"
    },
    {
      "anonymous": false,
      "inputs": [
        {
          "indexed": true,
          "name": "key",
          "type": "address"
        }
      ],
      "name": "EntryDeleted",
      "type": "event"
    },
    {
      "constant": false,
      "inputs": [
        {
          "name": "_digest",
          "type": "bytes32"
        },
        {
          "name": "_hashFunction",
          "type": "uint8"
        },
        {
          "name": "_size",
          "type": "uint8"
        }
      ],
      "name": "setEntry",
      "outputs": [],
      "payable": false,
      "stateMutability": "nonpayable",
      "type": "function"
    },
    {
      "constant": false,
      "inputs": [],
      "name": "clearEntry",
      "outputs": [],
      "payable": false,
      "stateMutability": "nonpayable",
      "type": "function"
    },
    {
      "constant": true,
      "inputs": [
        {
          "name": "_address",
          "type": "address"
        }
      ],
      "name": "getEntry",
      "outputs": [
        {
          "name": "digest",
          "type": "bytes32"
        },
        {
          "name": "hashfunction",
          "type": "uint8"
        },
        {
          "name": "size",
          "type": "uint8"
        }
      ],
      "payable": false,
      "stateMutability": "view",
      "type": "function"
    }
  ],
  "bytecode": "0x608060405234801561001057600080fd5b50610455806100206000396000f300608060405260043610610057576000357c0100000000000000000000000000000000000000000000000000000000900463ffffffff1680631d91bad81461005c5780634aa31d1a146100735780637db6a4e4146100be575b600080fd5b34801561006857600080fd5b50610071610137565b005b34801561007f57600080fd5b506100bc6004803603810190808035600019169060200190929190803560ff169060200190929190803560ff169060200190929190505050610245565b005b3480156100ca57600080fd5b506100ff600480360381019080803573ffffffffffffffffffffffffffffffffffffffff169060200190929190505050610381565b6040518084600019166000191681526020018360ff1660ff1681526020018260ff1660ff168152602001935050505060405180910390f35b60006001026000803373ffffffffffffffffffffffffffffffffffffffff1673ffffffffffffffffffffffffffffffffffffffff16815260200190815260200160002060000154600019161415151561018f57600080fd5b6000803373ffffffffffffffffffffffffffffffffffffffff1673ffffffffffffffffffffffffffffffffffffffff1681526020019081526020016000206000808201600090556001820160006101000a81549060ff02191690556001820160016101000a81549060ff021916905550503373ffffffffffffffffffffffffffffffffffffffff167f37094446b5b4f4420f3371942cfa215d42d75ca1721ea30e7711cd7b35c2d78b60405160405180910390a2565b61024d6103fe565b606060405190810160405280856000191681526020018460ff1681526020018360ff168152509050806000803373ffffffffffffffffffffffffffffffffffffffff1673ffffffffffffffffffffffffffffffffffffffff1681526020019081526020016000206000820151816000019060001916905560208201518160010160006101000a81548160ff021916908360ff16021790555060408201518160010160016101000a81548160ff021916908360ff1602179055509050503373ffffffffffffffffffffffffffffffffffffffff167f631aa1496c76170e1d345cbad46551b5ce9e00454bc5058a321afa3e4c69be8f8585856040518084600019166000191681526020018360ff1660ff1681526020018260ff1660ff168152602001935050505060405180910390a250505050565b6000806000806000808673ffffffffffffffffffffffffffffffffffffffff1673ffffffffffffffffffffffffffffffffffffffff168152602001908152602001600020905080600001548160010160009054906101000a900460ff168260010160019054906101000a900460ff16935093509350509193909250565b60606040519081016040528060008019168152602001600060ff168152602001600060ff16815250905600a165627a7a72305820123aa5f919f8c3c83c019a2eeb8192b9037fbad3b446c42454a02f331954ba380029",
  "source": "pragma solidity ^0.4.18;\n\n\n/**\n * @title IPFSStorage\n * @author Forest Fang (@saurfang)\n * @dev Stores IPFS (multihash) hash by address. A multihash entry is in the format\n * of <varint hash function code><varint digest size in bytes><hash function output>\n * See https://github.com/multiformats/multihash\n *\n * Currently IPFS hash is 34 bytes long with first two segments represented as a single byte (uint8)\n * The digest is 32 bytes long and can be stored using bytes32 efficiently.\n */\ncontract IPFSStorage {\n  struct Multihash {\n    bytes32 digest;\n    uint8 hashFunction;\n    uint8 size;\n  }\n\n  mapping (address => Multihash) private entries;\n\n  event EntrySet (\n    address indexed key,\n    bytes32 digest,\n    uint8 hashFunction,\n    uint8 size\n  );\n\n  event EntryDeleted (\n    address indexed key\n  );\n\n  /**\n   * @dev associate a multihash entry with the sender address\n   * @param _digest hash digest produced by hashing content using hash function\n   * @param _hashFunction hashFunction code for the hash function used\n   * @param _size length of the digest\n   */\n  function setEntry(bytes32 _digest, uint8 _hashFunction, uint8 _size)\n  public\n  {\n    Multihash memory entry = Multihash(_digest, _hashFunction, _size);\n    entries[msg.sender] = entry;\n    emit EntrySet(\n      msg.sender, \n      _digest, \n      _hashFunction, \n      _size\n    );\n  }\n\n  /**\n   * @dev deassociate any multihash entry with the sender address\n   */\n  function clearEntry()\n  public\n  {\n    require(entries[msg.sender].digest != 0);\n    delete entries[msg.sender];\n    emit EntryDeleted(msg.sender);\n  }\n\n  /**\n   * @dev retrieve multihash entry associated with an address\n   * @param _address address used as key\n   */\n  function getEntry(address _address)\n  public\n  view\n  returns(bytes32 digest, uint8 hashfunction, uint8 size)\n  {\n    Multihash storage entry = entries[_address];\n    return (entry.digest, entry.hashFunction, entry.size);\n  }\n}\n",
  "sourcePath": "/Users/apple/Documents/Career/Coding/ST Doc Standard/New copy/contracts/IPFSStorage.sol",
  "compiler": {
    "name": "solc",
    "version": "0.4.24+commit.e67f0147.Emscripten.clang"
  },
  "schemaVersion": "2.0.1",
  "updatedAt": "2018-11-28T15:49:50.849Z"
}