{
  "contractName": "LawyerRole",
  "abi": [
    {
      "constant": false,
      "inputs": [
        {
          "name": "account",
          "type": "address"
        }
      ],
      "name": "renounceGranter",
      "outputs": [],
      "payable": false,
      "stateMutability": "nonpayable",
      "type": "function"
    },
    {
      "constant": true,
      "inputs": [
        {
          "name": "account",
          "type": "address"
        }
      ],
      "name": "isGranter",
      "outputs": [
        {
          "name": "",
          "type": "bool"
        }
      ],
      "payable": false,
      "stateMutability": "view",
      "type": "function"
    },
    {
      "constant": false,
      "inputs": [
        {
          "name": "account",
          "type": "address"
        }
      ],
      "name": "addGranter",
      "outputs": [],
      "payable": false,
      "stateMutability": "nonpayable",
      "type": "function"
    },
    {
      "inputs": [],
      "payable": false,
      "stateMutability": "nonpayable",
      "type": "constructor"
    },
    {
      "anonymous": false,
      "inputs": [
        {
          "indexed": true,
          "name": "account",
          "type": "address"
        }
      ],
      "name": "LawyerAdded",
      "type": "event"
    },
    {
      "anonymous": false,
      "inputs": [
        {
          "indexed": true,
          "name": "account",
          "type": "address"
        }
      ],
      "name": "LawyerRemoved",
      "type": "event"
    },
    {
      "anonymous": false,
      "inputs": [
        {
          "indexed": true,
          "name": "account",
          "type": "address"
        }
      ],
      "name": "GranterAdded",
      "type": "event"
    },
    {
      "anonymous": false,
      "inputs": [
        {
          "indexed": true,
          "name": "account",
          "type": "address"
        }
      ],
      "name": "GranterRemoved",
      "type": "event"
    },
    {
      "constant": true,
      "inputs": [
        {
          "name": "account",
          "type": "address"
        }
      ],
      "name": "isLawyer",
      "outputs": [
        {
          "name": "",
          "type": "bool"
        }
      ],
      "payable": false,
      "stateMutability": "view",
      "type": "function"
    },
    {
      "constant": false,
      "inputs": [
        {
          "name": "account",
          "type": "address"
        }
      ],
      "name": "addLawyer",
      "outputs": [],
      "payable": false,
      "stateMutability": "nonpayable",
      "type": "function"
    },
    {
      "constant": false,
      "inputs": [
        {
          "name": "account",
          "type": "address"
        }
      ],
      "name": "renounceLawyer",
      "outputs": [],
      "payable": false,
      "stateMutability": "nonpayable",
      "type": "function"
    }
  ],
  "bytecode": "0x608060405234801561001057600080fd5b5061002933610051640100000000026401000000009004565b610041336100b8640100000000026401000000009004565b151561004c57600080fd5b610235565b6100728160006100e2640100000000026105a4179091906401000000009004565b8073ffffffffffffffffffffffffffffffffffffffff167fc4714d4043595982597a7dbd7c1e1ea54aa2aa05a056dc6278d08059583184d660405160405180910390a250565b60006100db8260006101a1640100000000026103ad179091906401000000009004565b9050919050565b600073ffffffffffffffffffffffffffffffffffffffff168173ffffffffffffffffffffffffffffffffffffffff161415151561011e57600080fd5b61013782826101a1640100000000026401000000009004565b15151561014357600080fd5b60018260000160008373ffffffffffffffffffffffffffffffffffffffff1673ffffffffffffffffffffffffffffffffffffffff16815260200190815260200160002060006101000a81548160ff0219169083151502179055505050565b60008073ffffffffffffffffffffffffffffffffffffffff168273ffffffffffffffffffffffffffffffffffffffff16141515156101de57600080fd5b8260000160008373ffffffffffffffffffffffffffffffffffffffff1673ffffffffffffffffffffffffffffffffffffffff16815260200190815260200160002060009054906101000a900460ff16905092915050565b610680806102446000396000f300608060405260043610610078576000357c0100000000000000000000000000000000000000000000000000000000900463ffffffff1680633d526b1a1461007d5780634b7fd4a3146100c05780635939a84e146101035780635a724ef01461015e57806397a70570146101a1578063a76f8132146101fc575b600080fd5b34801561008957600080fd5b506100be600480360381019080803573ffffffffffffffffffffffffffffffffffffffff16906020019092919050505061023f565b005b3480156100cc57600080fd5b50610101600480360381019080803573ffffffffffffffffffffffffffffffffffffffff16906020019092919050505061025f565b005b34801561010f57600080fd5b50610144600480360381019080803573ffffffffffffffffffffffffffffffffffffffff16906020019092919050505061027f565b604051808215151515815260200191505060405180910390f35b34801561016a57600080fd5b5061019f600480360381019080803573ffffffffffffffffffffffffffffffffffffffff16906020019092919050505061029c565b005b3480156101ad57600080fd5b506101e2600480360381019080803573ffffffffffffffffffffffffffffffffffffffff1690602001909291905050506102bc565b604051808215151515815260200191505060405180910390f35b34801561020857600080fd5b5061023d600480360381019080803573ffffffffffffffffffffffffffffffffffffffff1690602001909291905050506102d9565b005b610248336102bc565b151561025357600080fd5b61025c816102f9565b50565b610268336102bc565b151561027357600080fd5b61027c81610353565b50565b60006102958260016103ad90919063ffffffff16565b9050919050565b6102a5336102bc565b15156102b057600080fd5b6102b981610441565b50565b60006102d28260006103ad90919063ffffffff16565b9050919050565b6102e2336102bc565b15156102ed57600080fd5b6102f68161049b565b50565b61030d8160006104f590919063ffffffff16565b8073ffffffffffffffffffffffffffffffffffffffff167fd2e59266a0d2f9671731a631932e513c00d2f26666c6e152a6f52ec29dc75fdf60405160405180910390a250565b6103678160016104f590919063ffffffff16565b8073ffffffffffffffffffffffffffffffffffffffff167feb840aeb3331fcd74e8e9d6f8c8217b980229499416e3ee086b384d1e60d128960405160405180910390a250565b60008073ffffffffffffffffffffffffffffffffffffffff168273ffffffffffffffffffffffffffffffffffffffff16141515156103ea57600080fd5b8260000160008373ffffffffffffffffffffffffffffffffffffffff1673ffffffffffffffffffffffffffffffffffffffff16815260200190815260200160002060009054906101000a900460ff16905092915050565b6104558160016105a490919063ffffffff16565b8073ffffffffffffffffffffffffffffffffffffffff167f45f5349bd0c0b749fd852315cbeb4153c508befe4505d4427b599fb758d44b0460405160405180910390a250565b6104af8160006105a490919063ffffffff16565b8073ffffffffffffffffffffffffffffffffffffffff167fc4714d4043595982597a7dbd7c1e1ea54aa2aa05a056dc6278d08059583184d660405160405180910390a250565b600073ffffffffffffffffffffffffffffffffffffffff168173ffffffffffffffffffffffffffffffffffffffff161415151561053157600080fd5b61053b82826103ad565b151561054657600080fd5b60008260000160008373ffffffffffffffffffffffffffffffffffffffff1673ffffffffffffffffffffffffffffffffffffffff16815260200190815260200160002060006101000a81548160ff0219169083151502179055505050565b600073ffffffffffffffffffffffffffffffffffffffff168173ffffffffffffffffffffffffffffffffffffffff16141515156105e057600080fd5b6105ea82826103ad565b1515156105f657600080fd5b60018260000160008373ffffffffffffffffffffffffffffffffffffffff1673ffffffffffffffffffffffffffffffffffffffff16815260200190815260200160002060006101000a81548160ff02191690831515021790555050505600a165627a7a72305820a49c2089f51cb57ddd3c39a4ebfb304d1dfbd087df8f1027e46fb7025bd5a9320029",
  "source": "pragma solidity ^0.4.24;\n\nimport \"node_modules/openzeppelin-solidity/contracts/access/Roles.sol\";\nimport \"./GranterRole.sol\";\n\ncontract LawyerRole is GranterRole {\n  using Roles for Roles.Role;\n\n  event LawyerAdded(address indexed account);\n  event LawyerRemoved(address indexed account);\n\n  Roles.Role private lawyers;\n\n  constructor() public onlyGranter {\n    //_addLawyer(msg.sender);\n  }\n\n  modifier onlyLawyer() {\n    require(isLawyer(msg.sender));\n    _;\n  }\n\n  function isLawyer(address account) public view returns (bool) {\n    return lawyers.has(account);\n  }\n\n  function addLawyer(address account) public onlyGranter {\n    _addLawyer(account);\n  }\n\n  function renounceLawyer(address account) public onlyGranter {\n    _removeLawyer(account);\n  }\n\n  function _addLawyer(address account) internal {\n    lawyers.add(account);\n    emit LawyerAdded(account);\n  }\n\n  function _removeLawyer(address account) internal {\n    lawyers.remove(account);\n    emit LawyerRemoved(account);\n  }\n}\n",
  "sourcePath": "/Users/apple/Documents/Career/Coding/ST Doc Standard/New copy/contracts/LawyerRole.sol",
  "compiler": {
    "name": "solc",
    "version": "0.4.24+commit.e67f0147.Emscripten.clang"
  },
  "schemaVersion": "2.0.1",
  "updatedAt": "2018-11-28T15:49:50.844Z"
}