{
  "contractName": "Signer",
  "abi": [
    {
      "constant": false,
      "inputs": [],
      "name": "renounceOwnership",
      "outputs": [],
      "payable": false,
      "stateMutability": "nonpayable",
      "type": "function"
    },
    {
      "constant": true,
      "inputs": [],
      "name": "owner",
      "outputs": [
        {
          "name": "",
          "type": "address"
        }
      ],
      "payable": false,
      "stateMutability": "view",
      "type": "function"
    },
    {
      "constant": true,
      "inputs": [],
      "name": "isOwner",
      "outputs": [
        {
          "name": "",
          "type": "bool"
        }
      ],
      "payable": false,
      "stateMutability": "view",
      "type": "function"
    },
    {
      "constant": false,
      "inputs": [
        {
          "name": "newOwner",
          "type": "address"
        }
      ],
      "name": "transferOwnership",
      "outputs": [],
      "payable": false,
      "stateMutability": "nonpayable",
      "type": "function"
    },
    {
      "anonymous": false,
      "inputs": [
        {
          "indexed": false,
          "name": "signer",
          "type": "address"
        },
        {
          "indexed": false,
          "name": "role",
          "type": "uint8"
        }
      ],
      "name": "SignerAdd",
      "type": "event"
    },
    {
      "anonymous": false,
      "inputs": [
        {
          "indexed": false,
          "name": "addr",
          "type": "address"
        }
      ],
      "name": "SignerRemove",
      "type": "event"
    },
    {
      "anonymous": false,
      "inputs": [
        {
          "indexed": false,
          "name": "signer",
          "type": "address"
        },
        {
          "indexed": false,
          "name": "role",
          "type": "uint8"
        }
      ],
      "name": "SignerUpdate",
      "type": "event"
    },
    {
      "anonymous": false,
      "inputs": [
        {
          "indexed": true,
          "name": "previousOwner",
          "type": "address"
        },
        {
          "indexed": true,
          "name": "newOwner",
          "type": "address"
        }
      ],
      "name": "OwnershipTransferred",
      "type": "event"
    },
    {
      "constant": false,
      "inputs": [
        {
          "name": "signer",
          "type": "address"
        },
        {
          "name": "role",
          "type": "uint8"
        }
      ],
      "name": "addSigner",
      "outputs": [
        {
          "name": "success",
          "type": "bool"
        }
      ],
      "payable": false,
      "stateMutability": "nonpayable",
      "type": "function"
    },
    {
      "constant": true,
      "inputs": [
        {
          "name": "signer",
          "type": "address"
        }
      ],
      "name": "getSigner",
      "outputs": [
        {
          "name": "roleType",
          "type": "uint8"
        }
      ],
      "payable": false,
      "stateMutability": "view",
      "type": "function"
    },
    {
      "constant": false,
      "inputs": [
        {
          "name": "signer",
          "type": "address"
        },
        {
          "name": "role",
          "type": "uint8"
        }
      ],
      "name": "updateSigner",
      "outputs": [
        {
          "name": "success",
          "type": "bool"
        }
      ],
      "payable": false,
      "stateMutability": "nonpayable",
      "type": "function"
    },
    {
      "constant": true,
      "inputs": [
        {
          "name": "signer",
          "type": "address"
        }
      ],
      "name": "isSigner",
      "outputs": [
        {
          "name": "isIndeed",
          "type": "bool"
        }
      ],
      "payable": false,
      "stateMutability": "view",
      "type": "function"
    },
    {
      "constant": true,
      "inputs": [],
      "name": "getSignerCount",
      "outputs": [
        {
          "name": "count",
          "type": "uint256"
        }
      ],
      "payable": false,
      "stateMutability": "view",
      "type": "function"
    },
    {
      "constant": true,
      "inputs": [
        {
          "name": "index",
          "type": "uint256"
        }
      ],
      "name": "getSignerAtIndex",
      "outputs": [
        {
          "name": "signer",
          "type": "address"
        }
      ],
      "payable": false,
      "stateMutability": "view",
      "type": "function"
    },
    {
      "constant": false,
      "inputs": [
        {
          "name": "signer",
          "type": "address"
        }
      ],
      "name": "removeSigner",
      "outputs": [
        {
          "name": "success",
          "type": "bool"
        }
      ],
      "payable": false,
      "stateMutability": "nonpayable",
      "type": "function"
    }
  ],
  "bytecode": "0x6080604052336000806101000a81548173ffffffffffffffffffffffffffffffffffffffff021916908373ffffffffffffffffffffffffffffffffffffffff1602179055506000809054906101000a900473ffffffffffffffffffffffffffffffffffffffff1673ffffffffffffffffffffffffffffffffffffffff16600073ffffffffffffffffffffffffffffffffffffffff167f8be0079c531659141344cd1fd0a4f28419497f9722a3daafe3b4186f6b6457e060405160405180910390a3610de7806100cf6000396000f3006080604052600436106100af576000357c0100000000000000000000000000000000000000000000000000000000900463ffffffff1680630e316ab7146100b45780631180b5531461010f5780635257ed9e14610174578063715018a6146101e15780637df73e27146101f85780638da5cb5b146102535780638f32d59b146102aa578063b715be81146102d9578063f2fde38b14610304578063f9b97c9b14610347578063fa2fac7c146103af575b600080fd5b3480156100c057600080fd5b506100f5600480360381019080803573ffffffffffffffffffffffffffffffffffffffff169060200190929190505050610417565b604051808215151515815260200191505060405180910390f35b34801561011b57600080fd5b50610150600480360381019080803573ffffffffffffffffffffffffffffffffffffffff169060200190929190505050610656565b6040518082600381111561016057fe5b60ff16815260200191505060405180910390f35b34801561018057600080fd5b5061019f600480360381019080803590602001909291905050506106af565b604051808273ffffffffffffffffffffffffffffffffffffffff1673ffffffffffffffffffffffffffffffffffffffff16815260200191505060405180910390f35b3480156101ed57600080fd5b506101f66106f2565b005b34801561020457600080fd5b50610239600480360381019080803573ffffffffffffffffffffffffffffffffffffffff1690602001909291905050506107c4565b604051808215151515815260200191505060405180910390f35b34801561025f57600080fd5b5061026861088e565b604051808273ffffffffffffffffffffffffffffffffffffffff1673ffffffffffffffffffffffffffffffffffffffff16815260200191505060405180910390f35b3480156102b657600080fd5b506102bf6108b7565b604051808215151515815260200191505060405180910390f35b3480156102e557600080fd5b506102ee61090e565b6040518082815260200191505060405180910390f35b34801561031057600080fd5b50610345600480360381019080803573ffffffffffffffffffffffffffffffffffffffff16906020019092919050505061091b565b005b34801561035357600080fd5b50610395600480360381019080803573ffffffffffffffffffffffffffffffffffffffff169060200190929190803560ff16906020019092919050505061093a565b604051808215151515815260200191505060405180910390f35b3480156103bb57600080fd5b506103fd600480360381019080803573ffffffffffffffffffffffffffffffffffffffff169060200190929190803560ff169060200190929190505050610a9f565b604051808215151515815260200191505060405180910390f35b60008060006104246108b7565b151561042f57600080fd5b610438846107c4565b15156104ac576040517f08c379a00000000000000000000000000000000000000000000000000000000081526004018080602001828103825260158152602001807f5369676e657220646f6573206e6f74206578697374000000000000000000000081525060200191505060405180910390fd5b600260008573ffffffffffffffffffffffffffffffffffffffff1673ffffffffffffffffffffffffffffffffffffffff16815260200190815260200160002060010154915060018080805490500381548110151561050657fe5b9060005260206000200160009054906101000a900473ffffffffffffffffffffffffffffffffffffffff1690508060018381548110151561054357fe5b9060005260206000200160006101000a81548173ffffffffffffffffffffffffffffffffffffffff021916908373ffffffffffffffffffffffffffffffffffffffff16021790555081600260008373ffffffffffffffffffffffffffffffffffffffff1673ffffffffffffffffffffffffffffffffffffffff1681526020019081526020016000206001018190555060018054809190600190036105e79190610d6a565b507ff2b66a15d68573d409486e6d13ae3e6e8d0f5a2da238227de2366909a13b7d8c84604051808273ffffffffffffffffffffffffffffffffffffffff1673ffffffffffffffffffffffffffffffffffffffff16815260200191505060405180910390a1600192505050919050565b6000600260008373ffffffffffffffffffffffffffffffffffffffff1673ffffffffffffffffffffffffffffffffffffffff16815260200190815260200160002060000160009054906101000a900460ff169050919050565b60006001828154811015156106c057fe5b9060005260206000200160009054906101000a900473ffffffffffffffffffffffffffffffffffffffff169050919050565b6106fa6108b7565b151561070557600080fd5b600073ffffffffffffffffffffffffffffffffffffffff166000809054906101000a900473ffffffffffffffffffffffffffffffffffffffff1673ffffffffffffffffffffffffffffffffffffffff167f8be0079c531659141344cd1fd0a4f28419497f9722a3daafe3b4186f6b6457e060405160405180910390a360008060006101000a81548173ffffffffffffffffffffffffffffffffffffffff021916908373ffffffffffffffffffffffffffffffffffffffff160217905550565b60008060018054905014156107dc5760009050610889565b8173ffffffffffffffffffffffffffffffffffffffff166001600260008573ffffffffffffffffffffffffffffffffffffffff1673ffffffffffffffffffffffffffffffffffffffff1681526020019081526020016000206001015481548110151561084457fe5b9060005260206000200160009054906101000a900473ffffffffffffffffffffffffffffffffffffffff1673ffffffffffffffffffffffffffffffffffffffff161490505b919050565b60008060009054906101000a900473ffffffffffffffffffffffffffffffffffffffff16905090565b60008060009054906101000a900473ffffffffffffffffffffffffffffffffffffffff1673ffffffffffffffffffffffffffffffffffffffff163373ffffffffffffffffffffffffffffffffffffffff1614905090565b6000600180549050905090565b6109236108b7565b151561092e57600080fd5b61093781610c70565b50565b6000610945836107c4565b15156109b9576040517f08c379a00000000000000000000000000000000000000000000000000000000081526004018080602001828103825260158152602001807f5369676e657220646f6573206e6f74206578697374000000000000000000000081525060200191505060405180910390fd5b81600260008573ffffffffffffffffffffffffffffffffffffffff1673ffffffffffffffffffffffffffffffffffffffff16815260200190815260200160002060000160006101000a81548160ff02191690836003811115610a1757fe5b02179055507fcc8cd7dcea4ba67c229c167f1b73a9e73ac1e29207d3741c91e4a8bfa09768cc8383604051808373ffffffffffffffffffffffffffffffffffffffff1673ffffffffffffffffffffffffffffffffffffffff168152602001826003811115610a8157fe5b60ff1681526020019250505060405180910390a16001905092915050565b600080610aab846107c4565b151515610b20576040517f08c379a00000000000000000000000000000000000000000000000000000000081526004018080602001828103825260148152602001807f5369676e657220616c726561647920657869737400000000000000000000000081525060200191505060405180910390fd5b82905080600260008673ffffffffffffffffffffffffffffffffffffffff1673ffffffffffffffffffffffffffffffffffffffff16815260200190815260200160002060000160006101000a81548160ff02191690836003811115610b8157fe5b021790555060018490806001815401808255809150509060018203906000526020600020016000909192909190916101000a81548173ffffffffffffffffffffffffffffffffffffffff021916908373ffffffffffffffffffffffffffffffffffffffff160217905550507fbe0a04b91d37e130c543ce460999c2b43b8d458368a3b654c9ef8e49f5c521b58482604051808373ffffffffffffffffffffffffffffffffffffffff1673ffffffffffffffffffffffffffffffffffffffff168152602001826003811115610c5157fe5b60ff1681526020019250505060405180910390a1600191505092915050565b600073ffffffffffffffffffffffffffffffffffffffff168173ffffffffffffffffffffffffffffffffffffffff1614151515610cac57600080fd5b8073ffffffffffffffffffffffffffffffffffffffff166000809054906101000a900473ffffffffffffffffffffffffffffffffffffffff1673ffffffffffffffffffffffffffffffffffffffff167f8be0079c531659141344cd1fd0a4f28419497f9722a3daafe3b4186f6b6457e060405160405180910390a3806000806101000a81548173ffffffffffffffffffffffffffffffffffffffff021916908373ffffffffffffffffffffffffffffffffffffffff16021790555050565b815481835581811115610d9157818360005260206000209182019101610d909190610d96565b5b505050565b610db891905b80821115610db4576000816000905550600101610d9c565b5090565b905600a165627a7a72305820fa1dfe47a58f9e924db6435f0c29a1f308c27538922d3e1c939ceab6827157c10029",
  "source": "pragma solidity ^0.4.24;\n\nimport \"node_modules/openzeppelin-solidity/contracts/ownership/Ownable.sol\";\n\ncontract Signer is Ownable {\n\n\taddress[] signerIndex; //list of signer keys (address)\n\n\tenum RoleType {lawyer, beneficiary, codeAudit, granter}\n\n\tstruct SignerStruct {\n\t\tRoleType roleType;//role could be owner, beneficiairy,lawyer,codeAudit\n\t\tuint index; //pointer of keys position in signerIndex\n\t}\n\n\n\tmapping(address => SignerStruct) signerStructs;//associate signer address to signer struct\n\n\tevent SignerAdd(address signer, RoleType role);\n\tevent SignerRemove(address addr);\n\tevent SignerUpdate(address signer, RoleType role);\n\n\t/// @dev Allows to add a new signer to a role. Transaction has to be sent by wallet.\n    /// @param role label the role of the signer. is he beneficiairy or lawyer or something else?\n    /// @param signer Address of new signer.\n\tfunction addSigner(address signer, RoleType role) public returns(bool success) {\n\t\t//need to check if signer doesnt exist yet\n\t\trequire(!isSigner(signer),\"Signer already exist\");\n\t\tRoleType testrole = role;\n\t\tsignerStructs[signer].roleType = testrole;\n\t\tsignerIndex.push(signer);\n\t\temit SignerAdd(signer, testrole);\n\t\treturn true;\n\t}\n\n\t///@dev retrieve a signer by address, returns the signer's role type\n\t/// @param signer Address of the signer.\n\tfunction getSigner(address signer) public constant returns(RoleType roleType) {\n\t\treturn (\n\t\t\tsignerStructs[signer].roleType\n\t\t);\n\t}\n\n\t///@dev updates the role type of a signer\n\tfunction updateSigner(address signer, RoleType role) public returns(bool success) {\n\t\t//need to check if signer exist\n\t\trequire(isSigner(signer),\"Signer does not exist\");\n\t\tsignerStructs[signer].roleType = role;\n\t\temit SignerUpdate(signer, role);\n\t\treturn true;\n\t}\n\n\tfunction isSigner(address signer) public constant returns(bool isIndeed) {\n\t\t//if signerIndex array is empty, this signer doesnt exist\n\t\tif (signerIndex.length == 0) return false;\n\t\t//get the index of the signer to look up its address\n\t\treturn(signerIndex[signerStructs[signer].index] == signer);\n\t}\n\n\tfunction getSignerCount() public constant returns(uint count) {\n\t\treturn signerIndex.length;\n\t}\n\n\tfunction getSignerAtIndex(uint index) public constant returns(address signer) {\n\t  return signerIndex[index];\n\t}\n\n\t/// @dev Allows to remove an signer. Transaction has to be sent by wallet.\n    /// @param signer Address of owner.\n\tfunction removeSigner(address signer) onlyOwner public returns(bool success){\n\t\t//need to check if signer exist\n\t\trequire(isSigner(signer),\"Signer does not exist\");\n\n\t\tuint rowToDelete = signerStructs[signer].index;\n\t\taddress keyToMove = signerIndex[signerIndex.length - 1];\n\t\tsignerIndex[rowToDelete] = keyToMove;\n\t\tsignerStructs[keyToMove].index = rowToDelete;\n\t\tsignerIndex.length-- ; \n       \n        emit SignerRemove(signer);\n        return true;\n\t}\n\n}\n\n",
  "sourcePath": "/Users/apple/Documents/Career/Coding/ST Doc Standard/contracts/Signer.sol",
  "compiler": {
    "name": "solc",
    "version": "0.4.24+commit.e67f0147.Emscripten.clang"
  },
  "schemaVersion": "2.0.1",
  "updatedAt": "2018-11-27T02:40:47.090Z"
}